:100000000C942A000C943F000C943F000C943F0089
:100010000C943F000C943F000C943F000C943F0064
:100020000C943F000C943F000C943F000C943F0054
:100030000C943F000C943F000C943F000C943F0044
:100040000C943F000C943F000C943F000C943F0034
:100050000C943F0011241FBECFE5D8E0DEBFCDBF1A
:1000600010E0A0E6B0E0E2E3F1E002C005900D92FE
:10007000AA36B107D9F70E9441000C9497000C945E
:10008000000087E08BBB8FEF88BB8AB381608ABB9F
:1000900080E090E00FC0FC01E05AFF4F208127BBB9
:1000A0002FED32E242E0215030404040E1F700C005
:1000B000000001968930910574F38AB38E7F8ABB64
:1000C0008AB382608ABB80E090E00FC0FC01E05AF6
:1000D000FF4F208127BB2FED32E242E0215030401C
:1000E0004040E1F700C0000001968330910574F3B1
:1000F0008AB38D7F8ABB8AB384608ABB80E090E03C
:100100000FC0FC01E05AFF4F208127BB2FED32E2E8
:1001100042E0215030404040E1F700C0000001962D
:100120008930910574F38AB3877F8ABBAECFF89488
:02013000FFCFFF
:0A0132003F065B4F666D7D077F6F8F
:00000001FF
