:100000000C943A000C9498060C94F9060C94C406CF
:100010000C9457000C9457000C9457000C94570004
:100020000C9457000C9457000C9457000C945700F4
:100030000C9457000C9457000C9457000C945700E4
:100040000C9457000C9457000C9457000C945700D4
:100050000C945700110518052005280530053805B2
:10006000400548057C05810586058B0590059505AD
:100070009A059F0511241FBECFE5D8E0DEBFCDBF96
:1000800011E0A0E6B0E0ECE3F4E102C005900D92CF
:10009000A634B107D9F721E0A6E4B1E001C01D9272
:1000A000A935B207E1F70E9427030C941C0A0C94AF
:1000B00000001F93CF93DF93C82F162FD42F41E05A
:1000C0000E94B60541E06D2F8C2F0E94B60541E0DD
:1000D000612F8C2F0E9427062FE18FEB92E0215099
:1000E00080409040E1F700C0000040E06D2F8C2F71
:1000F0000E94270687EA91E60197F1F700C0000009
:10010000DF91CF911F9108951F93CF93DF93C82F55
:10011000162FD42F41E00E94B60541E06D2F8C2FA1
:100120000E94B60540E0612F8C2F0E94270641E017
:100130006D2F8C2F0E942706DF91CF911F9108957C
:10014000CF93DF9300D000D01F92CDB7DEB780E20F
:100150008D831A8286E08B8319821C82BE016F5FB9
:100160007F4F81E00E94050540E061E080E00E9451
:10017000B6050F900F900F900F900F90DF91CF91D9
:100180000895CF93DF9300D000D01F92CDB7DEB794
:1001900080E28D831A8286E08B83198287B1806426
:1001A00087B91C82BE016F5F7F4F81E00E946B05A3
:1001B0000F900F900F900F900F90DF91CF910895B7
:1001C000CF93DF9300D000D01F92CDB7DEB780E28F
:1001D0008D831A8286E08B8319821C82BE016F5F39
:1001E0007F4F80E00E9405050F900F900F900F90B9
:1001F0000F90DF91CF910895CF93DF9300D000D07F
:100200001F92CDB7DEB780E28D831A8286E08B83A2
:10021000198287B1806487B91C82BE016F5F7F4FEE
:1002200080E00E946B05BC0180E090E00E94C6085F
:1002300020E030E44CE955E40E94780920E030E009
:1002400040E85AE30E9478090E9497089B01ADECB0
:10025000BCEC0E940D0A9695879596958795969584
:1002600087950F900F900F900F900F90DF91CF9187
:1002700008950E9425070895682F70E080E090E0BF
:100280000E94C80820E030E040E052E40E94780973
:1002900020E030E044E353E40E94250820E030E011
:1002A00040EF51E40E94B4070E9497086CBF0E947F
:1002B0003207089588B3846088BB83ED90E301978B
:1002C000F1F700C0000088B38B7F88BB089584B32A
:1002D0008F7084BB88B3826088BB88B38E7F88BBF5
:1002E0000E945A0184B3806F84BB88B38D7F88BB22
:1002F0000895CF93C82F0E946701C5BB88B38C7F38
:1003000088BB89EF90E00197F1F700C000000E94E0
:100310005A01CF910895CF93DF93C82FD62F813004
:1003200031F4603120F480E8860F0E947901C230F8
:1003300031F4D03120F480EC8D0F0E947901DF91EF
:10034000CF91089581E00E947901089587E893E1B3
:100350000197F1F700C0000087B3876087BB88B3BF
:10036000887F88BB8FEF84BB85EA9EE00197F1F719
:1003700000C000000E94A20188E30E94790186E08B
:100380000E94790180E80E9479018FE00E94790142
:100390000895CF93C82F0E946701C5BB88B38D7F96
:1003A00088BB88B3816088BB89EF90E00197F1F743
:1003B00000C000000E945A01CF9108950F931F932F
:1003C000CF93DF938C01C0E0D0E018C021960F5F7F
:1003D0001F4F0E94C901C031D10529F460E082E0BD
:1003E0000E948B010BC0C032D10541F40E94A201D2
:1003F00060E081E00E948B01C0E0D0E0F8018081E4
:100400008111E4CFDF91CF911F910F910895CF9289
:10041000DF92EF92FF920F931F93CF93DF93CDB7AD
:10042000DEB72C970FB6F894DEBF0FBECDBF6B01C1
:100430007C01672B682B692B19F480E30E94C901AA
:1004400000E010E016C0C701B6012AE030E040E04D
:1004500050E00E94E509E1E0F0E0EC0FFD1FE00F45
:10046000F11F605D6083C22ED32EE42EF52E0F5F48
:100470001F4FC114D104E104F10429F70BC001504E
:100480001109E1E0F0E0EC0FFD1FE00FF11F8081AA
:100490000E94C9011016110694F32C960FB6F89419
:1004A000DEBF0FBECDBFDF91CF911F910F91FF90A7
:1004B000EF90DF90CF9008950F931F93CF93DF932A
:1004C000C82F142FD22F41E00E94B60541E0612FC2
:1004D0008C2F0E94B60541E06D2F8C2F0E94B6052F
:1004E00041E0602F8C2F0E94B605DF91CF911F91C4
:1004F0000F9108958F929F92AF92BF92CF92EF92F9
:100500000F931F93CF93DF93C82FCB01BA01D22F44
:1005100026E636E646EE5FE30E94250820E030E05E
:1005200040E85EE30E9478090E949708162F812C0C
:10053000912C540172C040E06D2F8C2F0E94270631
:1005400040E0602F8C2F0E94270640E06E2D8C2FFC
:100550000E94270641E06C2D8C2F0E94270683ED18
:1005600090E30197F1F700C0000040E06D2F8C2F61
:100570000E94270640E0602F8C2F0E94270641E052
:100580006E2D8C2F0E94270640E06C2D8C2F0E9430
:10059000270683ED90E30197F1F700C0000040E0EB
:1005A0006D2F8C2F0E94270641E0602F8C2F0E9418
:1005B000270640E06E2D8C2F0E94270640E06C2D10
:1005C0008C2F0E94270683ED90E30197F1F700C07E
:1005D000000041E06D2F8C2F0E94270640E0602F25
:1005E0008C2F0E94270640E06E2D8C2F0E9427063C
:1005F00040E06C2D8C2F0E94270683ED90E301973D
:10060000F1F700C0000020E030E040E85FE3C50102
:10061000B4010E94B4074B015C01612F70E080E0DF
:1006200090E00E94C8089B01AC01C501B4010E9482
:10063000200888230CF47FCFDF91CF911F910F9179
:10064000EF90CF90BF90AF909F908F900895CF93F1
:10065000DF93CDB7DEB729970FB6F894DEBF0FBE94
:10066000CDBF0E94A6011E8284E08D8388E08C832A
:100670001A8219821B8219861886CE0101960E9461
:100680005807CE0101960E94830788E591E00E94F9
:100690007D0780915801823309F45CC018F48133DE
:1006A00041F0F3CF833309F4E5C0843309F432C158
:1006B000ECCF41E064E083E00E94B6050E94A20115
:1006C00080E690E00E94DE012FEF84E39CE0215061
:1006D00080409040E1F700C000000E94A2010E940B
:1006E000A00040E064E083E00E9427060E94E00052
:1006F0000E94FC008C018AE790E00E94DE0160E02D
:1007000070E0CB010E94070269E081E00E948B014A
:1007100081E890E00E94DE0160E082E00E948B01AF
:100720008FE391E00E94DE01B80180E090E00E943A
:10073000070269E082E00E948B0189E890E00E9454
:10074000DE0143E050E062E070E083E090E00E9470
:1007500084009BCF41E065E083E00E94B6050E94E3
:10076000A20180E990E00E94DE012FEF84E39CE08B
:10077000215080409040E1F700C000000E94A2019B
:100780000E94A0000E94C1008C0180359105C8F52F
:1007900040E065E083E00E9427060E94E0000E949E
:1007A000FC005C018AE790E00E94DE01B80180E075
:1007B00090E00E94070269E081E00E948B0181E8DD
:1007C00090E00E94DE0160E082E00E948B018FE3F6
:1007D00091E00E94DE01B50180E090E00E940702F6
:1007E00069E082E00E948B0189E890E00E94DE01CE
:1007F00040E050E061E070E083E090E00E9459004A
:1008000044CF41E065E083E00E9427060E94E000BB
:100810000E94FC005C018AE790E00E94DE01B801C2
:1008200080E090E00E94070269E081E00E948B0175
:100830008AEA90E00E94DE0160E082E00E948B0183
:100840008FE391E00E94DE01B50180E090E00E941C
:10085000070269E082E00E948B0189E890E00E9433
:10086000DE0140E050E061E070E083E090E00E9453
:1008700059000BCF0E94A20181EB90E00E94DE01A3
:100880002FEF84E39CE0215080409040E1F700C0CE
:1008900000000E94A2018AEA90E00E94DE0141E08D
:1008A00066E083E00E94B60541E066E083E00E94D6
:1008B00027060E94E0000E94FC008C0167E081E0B6
:1008C0000E948B018FE391E00E94DE01B80180E07D
:1008D00090E00E9407020931110548F460E082E0CF
:1008E0000E948B018BEC90E00E94DE01CECE0E9434
:1008F00039010E94320789E00E943C078AE50E9484
:100900003C0160E082E00E948B0188ED90E00E9453
:10091000DE01BBCE0E94A20184EE90E00E94DE01C7
:100920002FEF84E39CE0215080409040E1F700C02D
:1009300000000E94A2018AEA90E00E94DE0141E0EC
:1009400067E083E00E94B60541E067E083E00E9433
:1009500027060E94E0000E94FC008C0160E082E01B
:100960000E948B018EEF90E00E94DE014801A12CD5
:10097000B12CC501B4010E9407020931110510F51F
:1009800007E026E045E064E080E00E945C020F2E74
:10099000F7E0CF2EF02D0F2EF6E0EF2EF02D05E034
:1009A00024E040E050E0BA0180E00E947A020E9418
:1009B000A2018BE091E00E94DE01C501B4010E941A
:1009C000070263CE07E026E045E064E080E00E9495
:1009D0005C020F2EF7E0CF2EF02D0F2EF6E0EF2E5B
:1009E000F02D05E024E040E050E064E372E480E0B4
:1009F0000E947A020E94A20188E291E00E94DE0138
:100A0000C501B4010E94070240CEDB01482F50E02F
:100A10004830510508F043C0FA01E65DFF4F0C94E1
:100A2000070A87B187B9B0934701A093460137C041
:100A300087B1816087B9B0934901A09348012FC065
:100A400087B1826087B9B0934B01A0934A0127C058
:100A500087B1836087B9B0934D01A0934C011FC04B
:100A600087B1846087B9B0934F01A0934E0117C03E
:100A700087B1856087B9B0935101A09350010FC031
:100A800087B1866087B9B0935301A093520107C024
:100A900087B1876087B9B0935501A093540197B18E
:100AA0008C91892B87B997B111968C911197892BCD
:100AB00087B996B112968C911297892B86B996B107
:100AC00013968C911397892B86B996B114968C91B5
:100AD000892B86B90895E82F86B1806886B986B1DA
:100AE000806486B98E2F90E08830910560F5FC0116
:100AF000EE5CFF4F0C94070A709347016093460128
:100B000022C070934901609348011DC070934B014E
:100B100060934A0118C070934D0160934C0113C05B
:100B200070934F0160934E010EC07093510160931A
:100B3000500109C0709353016093520104C0709337
:100B4000550160935401349BFECFFB0181818032BB
:100B500029F484B185B184B195B10895811105C09E
:100B600084B185B184B195B1089508954423B9F154
:100B7000413009F06BC0813089F028F08230C9F033
:100B8000833011F108952AB381E090E002C0880F0C
:100B9000991F6A95E2F7822B8ABB089527B381E0FB
:100BA00090E002C0880F991F6A95E2F7822B87BBFD
:100BB000089524B381E090E002C0880F991F6A95E0
:100BC000E2F7822B84BB089521B381E090E002C05C
:100BD000880F991F6A95E2F7822B81BB08958130B7
:100BE00091F028F08230D9F0833029F108952AB3AA
:100BF00081E090E002C0880F991F6A95E2F7809526
:100C000082238ABB089527B381E090E002C0880F59
:100C1000991F6A95E2F78095822387BB089524B3D4
:100C200081E090E002C0880F991F6A95E2F78095F5
:100C3000822384BB089521B381E090E002C0880F35
:100C4000991F6A95E2F78095822381BB089544231A
:100C5000B9F1413009F06BC0813089F028F0823061
:100C6000C9F0833011F108952BB381E090E002C008
:100C7000880F991F6A95E2F7822B8BBB089528B3E2
:100C800081E090E002C0880F991F6A95E2F7822BFD
:100C900088BB089525B381E090E002C0880F991FBA
:100CA0006A95E2F7822B85BB089522B381E090E03C
:100CB00002C0880F991F6A95E2F7822B82BB0895C4
:100CC000813091F028F08230D9F0833029F10895F5
:100CD0002BB381E090E002C0880F991F6A95E2F77C
:100CE000809582238BBB089528B381E090E002C0F9
:100CF000880F991F6A95E2F78095822388BB089533
:100D000025B381E090E002C0880F991F6A95E2F751
:100D10008095822385BB089522B381E090E002C0D4
:100D2000880F991F6A95E2F78095822382BB089508
:100D30001F920F920FB60F9211242F933F934F9350
:100D40005F936F937F938F939F93AF93BF93EF9333
:100D5000FF934FEF64E080E00E94B60541E064E05D
:100D600080E00E942706FF91EF91BF91AF919F9184
:100D70008F917F916F915F914F913F912F910F9044
:100D80000FBE0F901F9018951F920F920FB60F92E3
:100D900011242F933F934F935F936F937F938F9380
:100DA0009F93AF93BF93EF93FF9340E064E080E0A5
:100DB0000E9427062FE986E891E02150804090406C
:100DC000E1F700C0000040E063E080E00E942706F9
:100DD000FF91EF91BF91AF919F918F917F916F9113
:100DE0005F914F913F912F910F900FBE0F901F90E9
:100DF00018951F920F920FB60F9211242F933F93C5
:100E00004F935F936F937F938F939F93AF93BF9312
:100E1000EF93FF934FEF63E080E00E94B60541E05F
:100E200063E080E00E942706FF91EF91BF91AF91B0
:100E30009F918F917F916F915F914F913F912F91F2
:100E40000F900FBE0F901F90189587B3886087BBD7
:100E500083B7886083BF83B7806483BF83B78062B2
:100E600083BF089583B7816083BF83B78D7F83BFBE
:100E700083B7846083BF0895682F70E080E090E0BE
:100E80000E94C80820E030E048EC52E40E942508A7
:100E900020E030E040E853E40E94780920E030E0B0
:100EA00040E85FE30E94B3070E9497086CBF089573
:100EB000FC0190935901809358019DB18281892B47
:100EC0008DB99DB18181892B8DB99DB18081892B8F
:100ED0008DB99DB18381892B8DB99DB18481892B79
:100EE0008DB99DB18581892B8DB99EB18681892B64
:100EF0008EB98DB180648DB90895779BFECF2FB1E7
:100F0000FC0120830895FC0180818031A9F441E037
:100F100064E081E00E94B60541E065E081E00E9466
:100F2000B60540E066E081E00E94B60541E067E07A
:100F300081E00E94B6050895811114C040E064E08C
:100F400081E00E94B60540E065E081E00E94B605C0
:100F500041E066E081E00E94B60540E067E081E0A4
:100F60000E94B60508955058BB27AA270E94CB07B8
:100F70000C943E090E94300938F00E94370920F095
:100F800039F49F3F19F426F40C942D090EF4E095E2
:100F9000E7FB0C942709E92F0E944F0958F3BA1771
:100FA000620773078407950720F079F4A6F50C947F
:100FB00071090EF4E0950B2EBA2FA02D0B01B9018B
:100FC00090010C01CA01A0011124FF27591B99F0BF
:100FD000593F50F4503E68F11A16F040A22F232FCB
:100FE000342F4427585FF3CF469537952795A7951B
:100FF000F0405395C9F77EF41F16BA0B620B730BC2
:10100000840BBAF09150A1F0FF0FBB1F661F771F32
:10101000881FC2F70EC0BA0F621F731F841F48F4E7
:10102000879577956795B795F7959E3F08F0B0CF70
:101030009395880F08F09927EE0F97958795089557
:101040000E94030908F481E008950E9439080C9475
:101050003E090E94370958F00E94300940F029F4F7
:101060005F3F29F00C94270951110C9472090C94DC
:101070002D090E944F0968F39923B1F3552391F389
:10108000951B550BBB27AA2762177307840738F0F7
:101090009F5F5F4F220F331F441FAA1FA9F335D054
:1010A0000E2E3AF0E0E832D091505040E695001C08
:1010B000CAF72BD0FE2F29D0660F771F881FBB1FC2
:1010C000261737074807AB07B0E809F0BB0B802DA0
:1010D000BF01FF2793585F4F3AF09E3F510578F0CC
:1010E0000C9427090C9472095F3FE4F3983ED4F303
:1010F000869577956795B795F7959F5FC9F7880FA0
:10110000911D9695879597F90895E1E0660F771FF1
:10111000881FBB1F621773078407BA0720F0621B82
:10112000730B840BBA0BEE1F88F7E09508950E94AD
:10113000570988F09F5798F0B92F9927B751B0F009
:10114000E1F0660F771F881F991F1AF0BA95C9F74B
:1011500014C0B13091F00E947109B1E008950C946F
:101160007109672F782F8827B85F39F0B93FCCF322
:10117000869577956795B395D9F73EF490958095C8
:10118000709561957F4F8F4F9F4F0895E89409C0E8
:1011900097FB3EF490958095709561957F4F8F4FAA
:1011A0009F4F9923A9F0F92F96E9BB279395F695C0
:1011B000879577956795B795F111F8CFFAF4BB0F3E
:1011C00011F460FF1BC06F5F7F4F8F4F9F4F16C0A2
:1011D000882311F096E911C0772321F09EE8872F2C
:1011E000762F05C0662371F096E8862F70E060E0E8
:1011F0002AF09A95660F771F881FDAF7880F969561
:10120000879597F90895990F0008550FAA0BE0E804
:10121000FEEF16161706E807F907C0F012161306B8
:10122000E407F50798F0621B730B840B950B39F4F8
:101230000A2661F0232B242B252B21F408950A265E
:1012400009F4A140A6958FEF811D811D089597F99E
:101250009F6780E870E060E008959FEF80EC08955C
:1012600000240A9416161706180609060895002485
:101270000A9412161306140605060895092E0394FF
:10128000000C11F4882352F0BB0F40F4BF2B11F473
:1012900060FF04C06F5F7F4F8F4F9F4F089557FDD2
:1012A0009058440F551F59F05F3F71F04795880FD4
:1012B00097FB991F61F09F3F79F08795089512166B
:1012C00013061406551FF2CF4695F1DF08C0161617
:1012D00017061806991FF1CF8695710561050894C8
:1012E0000895E894BB2766277727CB0197F90895DF
:1012F0000E948B090C943E090E94300938F00E942C
:10130000370920F0952311F00C9427090C942D092E
:1013100011240C9472090E944F0970F3959FC1F338
:10132000950F50E0551F629FF001729FBB27F00D93
:10133000B11D639FAA27F00DB11DAA1F649F6627E8
:10134000B00DA11D661F829F2227B00DA11D621F37
:10135000739FB00DA11D621F839FA00D611D221FF1
:10136000749F3327A00D611D231F849F600D211DD5
:10137000822F762F6A2F11249F5750409AF0F1F058
:1013800088234AF0EE0FFF1FBB1F661F771F881FC1
:1013900091505040A9F79E3F510580F00C942709C9
:1013A0000C9472095F3FE4F3983ED4F386957795E9
:1013B0006795B795F795E7959F5FC1F7FE2B880F67
:1013C000911D9695879597F90895A1E21A2EAA1B6B
:1013D000BB1BFD010DC0AA1FBB1FEE1FFF1FA217E5
:1013E000B307E407F50720F0A21BB30BE40BF50BE2
:1013F000661F771F881F991F1A9469F7609570956B
:10140000809590959B01AC01BD01CF010895EE0F31
:10141000FF1F0590F491E02D0994A29FB001B39FA6
:10142000C001A39F700D811D1124911DB29F700DED
:0C143000811D1124911D0895F894FFCF38
:10143C00524F4D45203120495320524541445920AB
:10144C00544F20414354495645006C696768743ABF
:10145C00004C4544204F46460046414E204F4E001E
:10146C00524F4D452032204953205245414459207A
:10147C00544F20414354495645004C4544204F4E4F
:10148C0000524F4D45203320495320524541445979
:10149C0020544F204143544956450077696E646F80
:1014AC007720636C6F73650057696E646F77206F7C
:1014BC0070656E00524F4D452034204953205245E3
:1014CC0041445920544F2041435449564500524FF2
:1014DC004D4520342054454D503A004169722063EB
:1014EC006F6E646974696F6E657220206F6666201A
:1014FC00202054454D503A0041697220636F6E6450
:10150C006974696F6E657220204F4E202020205424
:06151C00454D503A0000AD
:00000001FF
