:100000000C9447000C9477040C94AC040C94A20458
:100010000C9464000C9464000C9464000C946400D0
:100020000C9464000C9464000C9464000C946400C0
:100030000C9464000C9464000C9464000C946400B0
:100040000C9464000C9464000C9464000C946400A0
:100050000C946400E402C502C502C502C502C502D3
:10006000C502C502C502E402E402C502E402C502FB
:10007000E402E402D602D602D602D602E402E40288
:10008000E402E402C502C502C502C502E40211246D
:100090001FBECFE5D8E0DEBFCDBF11E0A0E6B0E0E7
:1000A000EEECFAE002C005900D92A233B107D9F749
:1000B00021E0A2E3B1E001C01D92A433B207E1F751
:1000C0000E94EF010C9465050C94000084B38E7FB0
:1000D00084BB84B3806F84BB8FEF85BB089560E0E1
:1000E00070E07BC085B3806F85BB25B3FB01EE0F4D
:1000F000FF1FE05AFF4F81E090E0008002C0880FB0
:10010000991F0A94E2F78095822385BB40E050E076
:100110005EC083B3FA01EE0FFF1FE859FF4F208145
:1001200090E0022E02C0959587950A94E2F780FD33
:100130004CC083B390E0022E02C0959587950A9437
:10014000E2F780FFF6CF61307105C9F024F4611544
:10015000710541F03AC062307105F1F0633071050C
:1001600041F133C041155105F1F141305105E9F13B
:1001700042305105E1F14330510539F53AC041159E
:100180005105C9F141305105C1F142305105B9F174
:1001900043305105D1F435C041155105A1F141302D
:1001A000510599F14230510591F14330510569F4FF
:1001B00030C04115510579F14130510571F142309E
:1001C000510569F14330510561F14F5F5F4F443094
:1001D00051050CF49ECF6F5F7F4F643071050CF4B6
:1001E00081CF8EE4089587E3089584E3089581E341
:1001F000089581E2089588E3089585E3089582E3F0
:10020000089580E3089589E3089586E3089583E3DC
:1002100008958DE308958FE208958AE208958DE2AE
:1002200008958BE2089588B3826088BB83ED90E3E4
:100230000197F1F700C0000088B38D7F88BB089557
:100240008AB38F708ABB88B3846088BB88B3877F8A
:1002500088BB0E9413018AB3806F8ABB88B38B7FEF
:1002600088BB0895CF93C82F0E942001CBBB88B3D1
:10027000837F88BB89EF90E00197F1F700C0000011
:100280000E941301CF910895CF93DF93C82FD62FEB
:10029000813031F4603120F480E8860F0E94320111
:1002A000C23031F4D03120F480EC8D0F0E94320145
:1002B000DF91CF91089581E00E943201089587E88F
:1002C00093E10197F1F700C0000087B38E6087BB10
:1002D00088B3817F88BB8FEF8ABB85EA9EE0019758
:1002E000F1F700C000000E945B0188E30E94320128
:1002F00086E00E94320180E80E9432018FE00E9475
:1003000032010895CF93C82F0E942001CBBB88B340
:100310008B7F88BB88B3886088BB89EF90E00197AA
:10032000F1F700C000000E941301CF9108950F93D0
:100330001F93CF93DF938C01C0E0D0E018C02196CB
:100340000F5F1F4F0E948201C031D10529F460E088
:1003500082E00E9444010BC0C032D10541F40E94EA
:100360005B0160E081E00E944401C0E0D0E0F80160
:1003700080818111E4CFDF91CF911F910F9108957A
:10038000BC0120E030E00CC0FB01E20FF31F408114
:10039000F901E059FF4F9081491307C02F5F3F4F8C
:1003A000243031058CF381E0089580E00895CF93E7
:1003B000DF93EC010E945B0160E081E00E94440158
:1003C000CE010E9497012FE78AE196E021508040FC
:1003D0009040E1F700C00000DF91CF910895CF93E6
:1003E000DF93CDB7DEB72F970FB6F894DEBF0FBE01
:1003F000CDBF0E945F010E94660000E00E945B0189
:1004000060E081E00E94440184E790E00E9497014F
:1004100010E015C00E946F0001C08EE48E34D1F34D
:10042000E1E0F0E0EC0FFD1FE10FF11D8083612F93
:1004300082E00E9444018AE20E9482011F5F143020
:1004400060F31D82CE0101960E94C001882309F449
:100450005EC085E890E00E94D70141E067E083E05C
:100460000E94FB0241E067E083E00E946C031B8670
:1004700084E08A8788E089871F8280E18E831886DE
:100480001E861D86CE0106960E94DE04CE010696CB
:100490000E94090580E00E94440481E00E9411044A
:1004A0000E9439050E945B0160E081E00E944401E6
:1004B00083E990E00E9497012FE784E89EE12150B4
:1004C00080409040E1F700C000000E945B018DEA8F
:1004D00090E00E9497012FE387E79BE12150804045
:1004E0009040E1F700C000000E945B0189EC90E0C1
:1004F0000E94970160E082E00E9444018AED90E052
:100500000E94970160E081E00E9444013EC00F5FBD
:100510000330B0F18BEE90E00E94D70141E060E043
:1005200081E00E94FB0241E066E083E00E94FB0262
:1005300041E066E083E00E946C0300E010E01BC035
:1005400041E060E081E00E946C032FE986E891E0E1
:10055000215080409040E1F700C0000040E060E0A2
:1005600081E00E946C038FE493EC0197F1F700C0E7
:1005700000000F5F1F4F0E31110514F300E03ECF56
:1005800088EF90E00E94D70139CF0E945B058F87EA
:100590000E945705EF858E2F90E0FC01B197ED3159
:1005A000F10598F7E65DFF4F0C945F050E945B0133
:1005B00082E191E00E9497018F850E948201CE0125
:1005C0000F960E940305E1CF0E945B018BE191E051
:1005D0000E949701DACF813041F028F0823039F063
:1005E000833039F008956ABB089567BB089564BBF2
:1005F000089561BB08954423B9F1413009F06BC0FF
:10060000813089F028F08230C9F0833011F10895EB
:100610002AB381E090E002C0880F991F6A95E2F743
:10062000822B8ABB089527B381E090E002C0880F37
:10063000991F6A95E2F7822B87BB089524B381E066
:1006400090E002C0880F991F6A95E2F7822B84BB65
:10065000089521B381E090E002C0880F991F6A9548
:10066000E2F7822B81BB0895813091F028F082302F
:10067000D9F0833029F108952AB381E090E002C0D7
:10068000880F991F6A95E2F7809582238ABB0895A7
:1006900027B381E090E002C0880F991F6A95E2F7C6
:1006A0008095822387BB089524B381E090E002C047
:1006B000880F991F6A95E2F78095822384BB08957D
:1006C00021B381E090E002C0880F991F6A95E2F79C
:1006D0008095822381BB08954423B9F1413009F00C
:1006E0006BC0813089F028F08230C9F0833011F17D
:1006F00008952BB381E090E002C0880F991F6A959E
:10070000E2F7822B8BBB089528B381E090E002C012
:10071000880F991F6A95E2F7822B88BB089525B34D
:1007200081E090E002C0880F991F6A95E2F7822B62
:1007300085BB089522B381E090E002C0880F991F25
:100740006A95E2F7822B82BB0895813091F028F000
:100750008230D9F0833029F108952BB381E090E005
:1007600002C0880F991F6A95E2F7809582238BBBA0
:10077000089528B381E090E002C0880F991F6A9520
:10078000E2F78095822388BB089525B381E090E04D
:1007900002C0880F991F6A95E2F78095822385BB76
:1007A000089522B381E090E002C0880F991F6A95F6
:1007B000E2F78095822382BB0895813089F028F08A
:1007C0008230C9F0833011F108952BB381E090E0BD
:1007D00002C0880F991F6A95E2F7822B8BBB0895A0
:1007E00028B381E090E002C0880F991F6A95E2F774
:1007F000822B88BB089525B381E090E002C0880F6A
:10080000991F6A95E2F7822B85BB089522B381E098
:1008100090E002C0880F991F6A95E2F7822B82BB95
:1008200008959FB790689FBF813069F028F08230AB
:1008300089F08330B1F01BC085B78B7F85BF85B74A
:10084000877F85BF14C085B7877F85BF85B78460E4
:1008500085BF0DC085B7886085BF85B78B7F85BF95
:1008600006C085B7846085BF85B7886085BF8BB7B4
:1008700080688BBF63E083E00E94DD0340E063E0BB
:1008800083E00E94FB0208959FB790689FBF81306C
:1008900069F028F0823089F08330B1F01BC085B751
:1008A0008B7F85BF85B7877F85BF14C085B7877F5E
:1008B00085BF85B7846085BF0DC085B7886085BF5B
:1008C00085B78B7F85BF06C085B7846085BF85B738
:1008D000886085BF8BB780648BBF62E083E00E9435
:1008E000DD0340E062E083E00E94FB0208951F9276
:1008F0000F920FB60F9211242F933F934F935F9354
:100900006F937F938F939F93AF93BF93EF93FF93D7
:1009100062E083E00E94DD0340E066E083E00E9445
:100920006C03FF91EF91BF91AF919F918F917F9158
:100930006F915F914F913F912F910F900FBE0F904C
:100940001F9018951F920F920FB60F9211240F90BF
:100950000FBE0F901F9018951F920F920FB60F9217
:1009600011242F933F934F935F936F937F938F93B4
:100970009F93AF93BF93EF93FF9360E080E00E945B
:10098000EB0260E081E00E94EB0260E082E00E9406
:10099000EB0260E083E00E94EB02FF91EF91BF91D8
:1009A000AF919F918F917F916F915F914F913F9107
:1009B0002F910F900FBE0F901F901895FC019093F0
:1009C0003501809334019DB18281892B8DB99DB110
:1009D0008181892B8DB99DB18081892B8DB99DB184
:1009E0008381892B8DB99DB18481892B8DB99DB16E
:1009F0008581892B8DB99EB18681892B8EB98DB168
:100A000080648DB90895FC0180818FB9779BFECFFA
:100A10000895FC0180818031A9F441E064E081E027
:100A20000E94FB0241E065E081E00E94FB0240E0A1
:100A300066E081E00E94FB0241E067E081E00E9405
:100A4000FB020895811114C040E064E081E00E943F
:100A5000FB0240E065E081E00E94FB0241E066E0CD
:100A600081E00E94FB0240E067E081E00E94FB021F
:100A700008958BB18D7F8BB983E389B98AB1806189
:100A80008AB98AB188608AB980B58F7E80BD80B509
:100A9000806280BD80B5886080BD80B5826080BD89
:100AA00080B5846080BD8AB18B7F8AB908955D9BD3
:100AB000FECF8CB908955F9BFECF8CB10895EE0FE9
:0E0AC000FF1F0590F491E02D0994F894FFCFEC
:100ACE0004000500060007000000010002000300FC
:100ADE0031323334456E7465722050415353574F43
:100AEE0052442E2E00524947482050415353574FDF
:100AFE0052440077656C636F6D6520746F206D795D
:100B0E002020202020202020686F6D650043686F14
:100B1E006F736520524F4D4520544F2020202020CA
:100B2E0020436F6E74726F6C00313A524F4D4531E7
:100B3E002020323A524F4D453200333A524F4D45F6
:100B4E00332020343A524F4D453400546F6F206D90
:100B5E00616E79207472790077726F6E67207061A2
:100B6E007373776F72642020747279206167616984
:100B7E006E00494E20524F4D45200074686174201E
:100B8E006F7074696F6E206E6F742076616C69641D
:020B9E00200035
:00000001FF
