:100000000C943A000C9420030C9481030C944C0340
:100010000C9457000C9457000C9457000C94570004
:100020000C9457000C9457000C9457000C945700F4
:100030000C9457000C9457000C9457000C945700E4
:100040000C9457000C9457000C9457000C945700D4
:100050000C9457009901A001A801B001B801C0019A
:10006000C801D001040209020E02130218021D0287
:100070002202270211241FBECFE5D8E0DEBFCDBF8C
:1000800010E0A0E6B0E0E0E2FAE002C005900D92D8
:10009000A036B107D9F720E0A0E6B0E001C01D927C
:1000A000A037B207E1F70E9474010C940E050C947E
:1000B0000000CF93DF9300D000D01F92CDB7DEB702
:1000C00080E28D831A8286E08B8319821C82BE01B6
:1000D0006F5F7F4F80E00E948D010F900F900F9017
:1000E0000F900F90DF91CF910895CF93DF9300D0C1
:1000F00000D01F92CDB7DEB780E28D831A8286E0F2
:100100008B83198287B1806487B91C82BE016F5FBF
:100110007F4F80E00E94F301BC0180E090E00E94EC
:10012000DC0320E030E44CE955E40E946A0420E05E
:1001300030E040E85AE30E946A040E94AD039B014C
:10014000ADECBCEC0E94FF0496958795969587953B
:10015000969587950F900F900F900F900F90DF91CD
:10016000CF91089585B3886085BB83ED90E30197B7
:10017000F1F700C0000085B3877F85BB089581B388
:100180008F7081BB85B3846085BB85B38D7F85BB54
:100190000E94B20081B3806F81BB85B38B7F85BB2A
:1001A0000895CF93C82F0E94BF00C2BB85B3897F3B
:1001B00085BB89EF90E00197F1F700C000000E9435
:1001C000B200CF91089581E00E94D100089587E8A0
:1001D00093E10197F1F700C0000084B38E6084BB07
:1001E00085B3817F85BB8FEF81BB85EA9EE0019758
:1001F000F1F700C000000E94E30088E30E94D100F4
:1002000086E00E94D10080E80E94D1008FE00E9429
:10021000D1000895CF93C82F0E94BF00C2BB85B301
:100220008B7F85BB85B3826085BB89EF90E00197AA
:10023000F1F700C000000E94B200CF910895CF9264
:10024000DF92EF92FF920F931F93CF93DF93CDB77F
:10025000DEB72C970FB6F894DEBF0FBECDBF6B0193
:100260007C01672B682B692B19F480E30E940A013B
:1002700000E010E016C0C701B6012AE030E040E01F
:1002800050E00E94D704E1E0F0E0EC0FFD1FE00F2A
:10029000F11F605D6083C22ED32EE42EF52E0F5F1A
:1002A0001F4FC114D104E104F10429F70BC0015020
:1002B0001109E1E0F0E0EC0FFD1FE00FF11F80817C
:1002C0000E940A011016110694F32C960FB6F894AA
:1002D000DEBF0FBECDBFDF91CF911F910F91FF9079
:1002E000EF90DF90CF9008950E9459000E94E700A0
:1002F0000E94E3000E947500BC0180E090E00E9433
:100300001F012FE986E891E0215080409040E1F7FD
:1003100000C000000E94E300EBCFDB01482F50E05B
:100320004830510508F043C0FA01E65DFF4F0C94D8
:10033000F90487B187B9B0936100A093600037C01A
:1003400087B1816087B9B0936300A09362002FC02A
:1003500087B1826087B9B0936500A093640027C01D
:1003600087B1836087B9B0936700A09366001FC010
:1003700087B1846087B9B0936900A093680017C003
:1003800087B1856087B9B0936B00A0936A000FC0F6
:1003900087B1866087B9B0936D00A0936C0007C0E9
:1003A00087B1876087B9B0936F00A0936E0097B153
:1003B0008C91892B87B997B111968C911197892BC4
:1003C00087B996B112968C911297892B86B996B1FE
:1003D00013968C911397892B86B996B114968C91AC
:1003E000892B86B90895E82F86B1806886B986B1D1
:1003F000806486B98E2F90E08830910560F5FC010D
:10040000EE5CFF4F0C94F904709361006093600000
:1004100022C070936300609362001DC070936500FA
:100420006093640018C0709367006093660013C007
:1004300070936900609368000EC070936B006093C6
:100440006A0009C070936D0060936C0004C07093E3
:100450006F0060936E00349BFECFFB018181803280
:1004600029F484B185B184B195B10895811105C095
:1004700084B185B184B195B1089508954423B9F14B
:10048000413009F06BC0813089F028F08230C9F02A
:10049000833011F108952AB381E090E002C0880F03
:1004A000991F6A95E2F7822B8ABB089527B381E0F2
:1004B00090E002C0880F991F6A95E2F7822B87BBF4
:1004C000089524B381E090E002C0880F991F6A95D7
:1004D000E2F7822B84BB089521B381E090E002C053
:1004E000880F991F6A95E2F7822B81BB08958130AE
:1004F00091F028F08230D9F0833029F108952AB3A1
:1005000081E090E002C0880F991F6A95E2F780951C
:1005100082238ABB089527B381E090E002C0880F50
:10052000991F6A95E2F78095822387BB089524B3CB
:1005300081E090E002C0880F991F6A95E2F78095EC
:10054000822384BB089521B381E090E002C0880F2C
:10055000991F6A95E2F78095822381BB0895442311
:10056000B9F1413009F06BC0813089F028F0823058
:10057000C9F0833011F108952BB381E090E002C0FF
:10058000880F991F6A95E2F7822B8BBB089528B3D9
:1005900081E090E002C0880F991F6A95E2F7822BF4
:1005A00088BB089525B381E090E002C0880F991FB1
:1005B0006A95E2F7822B85BB089522B381E090E033
:1005C00002C0880F991F6A95E2F7822B82BB0895BB
:1005D000813091F028F08230D9F0833029F10895EC
:1005E0002BB381E090E002C0880F991F6A95E2F773
:1005F000809582238BBB089528B381E090E002C0F0
:10060000880F991F6A95E2F78095822388BB089529
:1006100025B381E090E002C0880F991F6A95E2F748
:100620008095822385BB089522B381E090E002C0CB
:10063000880F991F6A95E2F78095822382BB0895FF
:100640001F920F920FB60F9211242F933F934F9347
:100650005F936F937F938F939F93AF93BF93EF932A
:10066000FF934FEF64E080E00E943E0241E064E0CF
:1006700080E00E94AF02FF91EF91BF91AF919F91F7
:100680008F917F916F915F914F913F912F910F903B
:100690000FBE0F901F9018951F920F920FB60F92DA
:1006A00011242F933F934F935F936F937F938F9377
:1006B0009F93AF93BF93EF93FF9340E064E080E09C
:1006C0000E94AF022FE986E891E0215080409040DF
:1006D000E1F700C0000040E063E080E00E94AF026C
:1006E000FF91EF91BF91AF919F918F917F916F910A
:1006F0005F914F913F912F910F900FBE0F901F90E0
:1007000018951F920F920FB60F9211242F933F93BB
:100710004F935F936F937F938F939F93AF93BF9309
:10072000EF93FF934FEF63E080E00E943E0241E0D1
:1007300063E080E00E94AF02FF91EF91BF91AF9123
:100740009F918F917F916F915F914F913F912F91E9
:100750000F900FBE0F901F9018950E94490488F0CB
:100760009F5798F0B92F9927B751B0F0E1F0660F75
:10077000771F881F991F1AF0BA95C9F714C0B130B6
:1007800091F00E946304B1E008950C946304672F14
:10079000782F8827B85F39F0B93FCCF386957795E5
:1007A0006795B395D9F73EF49095809570956195CE
:1007B0007F4F8F4F9F4F0895E89409C097FB3EF4F9
:1007C00090958095709561957F4F8F4F9F4F99239E
:1007D000A9F0F92F96E9BB279395F695879577951C
:1007E0006795B795F111F8CFFAF4BB0F11F460FFDC
:1007F0001BC06F5F7F4F8F4F9F4F16C0882311F034
:1008000096E911C0772321F09EE8872F762F05C047
:10081000662371F096E8862F70E060E02AF09A95E2
:10082000660F771F881FDAF7880F9695879597F9D7
:10083000089597F99F6780E870E060E008959FEF62
:1008400080EC089500240A94161617061806090667
:10085000089500240A941216130614060506089536
:10086000092E0394000C11F4882352F0BB0F40F4BE
:10087000BF2B11F460FF04C06F5F7F4F8F4F9F4FFE
:10088000089557FD9058440F551F59F05F3F71F080
:100890004795880F97FB991F61F09F3F79F08795E7
:1008A0000895121613061406551FF2CF4695F1DF70
:1008B00008C0161617061806991FF1CF8695710500
:1008C000610508940895E894BB2766277727CB0134
:1008D00097F908950E947D040C9430040E9422042C
:1008E00038F00E94290420F0952311F00C9419048B
:1008F0000C941F0411240C9464040E94410470F3AE
:10090000959FC1F3950F50E0551F629FF001729FB4
:10091000BB27F00DB11D639FAA27F00DB11DAA1FC3
:10092000649F6627B00DA11D661F829F2227B00D10
:10093000A11D621F739FB00DA11D621F839FA00D9B
:10094000611D221F749F3327A00D611D231F849FEB
:10095000600D211D822F762F6A2F11249F57504042
:100960009AF0F1F088234AF0EE0FFF1FBB1F661FBD
:10097000771F881F91505040A9F79E3F510580F086
:100980000C9419040C9464045F3FE4F3983ED4F390
:10099000869577956795B795F795E7959F5FC1F72A
:1009A000FE2B880F911D9695879597F90895A1E2E2
:1009B0001A2EAA1BBB1BFD010DC0AA1FBB1FEE1FD9
:1009C000FF1FA217B307E407F50720F0A21BB30B24
:1009D000E40BF50B661F771F881F991F1A9469F7A0
:1009E00060957095809590959B01AC01BD01CF01FC
:1009F0000895EE0FFF1F0590F491E02D0994A29F3A
:100A0000B001B39FC001A39F700D811D1124911DE2
:100A1000B29F700D811D1124911D0895F894FFCF90
:00000001FF
